S01100004475655F726F626F742E7372656370
S21408000038CC07200D200800092008000920080021
S2140800100920080009200800092008000000000040
S2140800200000000000000000000000006902080050
S2140800300920080000000000E50208002103080067
S21408004009200800092008000920080009200800DF
S21408005009200800092008000920080009200800CF
S214080060092008000920080000000000BD1E08003E
S214080070D11E0800E51E0800F91E08000000000052
S21408008000000000211608000920080009200800C2
S214080090092008000920080009200800092008008F
S2140800A009200800000000000920080009200800B0
S2140800B0092008000920080009200800092008006F
S2140800C0092008000920080009200800092008005F
S2140800D0092008000920080009200800092008004F
S2140800E0092008000920080009200800092008003F
S2140800F00920080010B5054C237833B9044B13B112
S2140801000448AFF300800123237010BD7009072050
S21408011000000000305C0800084B10B51BB108480A
S2140801200849AFF300800848036803B910BD074BB9
S214080130002BFBD0BDE81040184700BF00000000A9
S214080140305C080074090720305C080000000000D6
S21408015070B50E46144670B91546611B002D31441D
S21408016006DD064B013D1868054B1B689847F4E703
S21408017024EAE47070BD4FF0FF3070BD24AC072051
S2140801801CAC072043699B0743BFC1F30801C16144
S2140801900020012070474369DB0741BF83690020C0
S2140801A0C3F308030B6058BF0120704700F108032B
S2140801B04FF0FF3282604360C36003610023036030
S2140801C0704700230361704743685A684A6042686C
S2140801D08A605A6891605960416008610368013313
S2140801E0036070470A6810B5531C01D1036907E01D
S2140801F000F108035C682468944201D85B68F9E754
S2140802005A684A6091608B605960086103680133D8
S214080210036010BD436882689A60836842685A60C3
S21408022003695A68824204BF82685A6000220261E3
S2140802301A68013A1A601868704700000348006890
S214080240006880F3088862B600DF00BF08ED00E0AB
S2140802504FF0807300E90A00002340F80C3C40F891
S214080260202C403870470000064B19680868B0E82C
S214080270F00F80F309884FF0000080F311884EF0E5
S2140802800D0E704764AA0720024B4FF080521A6082
S214080290704700BF04ED00E0EFF311804FF0A001B7
S2140802A081F311887047002008B5034B9847034A26
S2140802B013680133136008BD99020800EC00072094
S2140802C080F311887047000008B5044B1868013899
S2140802D0186008B9024B984708BD00BFEC00072015
S2140802E0C1020800EFF309800C4B1A6820E9F00FEA
S2140802F010602DE908404FF0A00080F3118800F048
S2140803005DFE4FF0000080F31188BDE808401968CC
S2140803100868B0E8F00F80F30988704764AA0720D9
S21408032008B5064B4FF080521A60054B9847054BA8
S21408033098470020044B984708BD00BF04ED00E02E
S21408034099020800950C0800C1020800034A044BED
S2140803501A60072243F8042C704700BF1F480100A4
S21408036014E000E010B5094B00241A6842F4700245
S2140803701A601A6842F070421A60054B9847054B97
S2140803801C60054B9847204610BD00BF20ED00E0D6
S2140803904D030800EC0007203D02080010B5104B7E
S2140803A01A68824201D21346FAE759685C188442F2
S2140803B001BF4068091818465960416844189442B5
S2140803C009D1084C2468A2421FBF526889184160A8
S2140803D01A6818BF12688342026018BF186010BDFA
S2140803E094A9072090A9072070B5254B044698477E
S2140803F0244A116889B949F6F07549F6F476224B0D
S214080400224899510360416059512148214983E89F
S21408041021000B681060103B0B602CB1103463078A
S2140804201CBF24F00704083449F6FE73611E99427F
S21408043021D8164B1D686968A14203D312689542F5
S21408044006D118E029680029F8D02B460D46F2E7B1
S2140804502A681E681A606B6810361B1B202B04D986
S214080460281943606C600C4B98470A4A69681368F9
S2140804705B1A136000E00026084B9847304670BDAC
S214080480650C080090A907209009072094A9072062
S21408049080A90720F00007209D030800810D0800AA
S2140804A010B5044668B1074B9847074A54F80C1C21
S2140804B01368A4F110000B441360044B9847044BD0
S2140804C0984710BD650C0800F00007209D0308003B
S2140804D0810D080038B504461046226C32B92568E6
S2140804E0FDB96068114B984765601AE0104B58B91B
S2140804F0A0689847A268236C13446268A360934276
S2140805000FD32368A3600CE0E0689847236CE26882
S2140805105B4221681A448A42E2603EBF62689B18C2
S214080520E360A36B0133A36338BD00BF89120800DC
S2140805307927080038B5056803465DB1C468026CBB
S2140805401444C4604068844228BFDD600846D96801
S214080550014B984738BD00BF7927080070B5174D7E
S21408056004462E46A847A36C002B0CDD636A53B1DD
S21408057004F12400124B984708B1124B9847A36C15
S214080580013BA364EFE74FF0FF33A3640E4DA84783
S214080590B047636C002B0CDD236953B104F11000DF
S2140805A0074B984708B1074B9847636C013B636451
S2140805B0EFE74FF0FF336364A84770BDA902080051
S2140805C0CD100800E5110800C902080038B50D4628
S2140805D0044618B9164B984700BFFDE7154B9847D1
S2140805E0206CE36B22684343D1181B1A13446160DE
S2140805F0E36000214FF0FF33A163A2606364A36445
S21408060055B923697BB104F110000B4B98470128B4
S21408061009D10A4B984706E004F11000084DA84790
S21408062004F12400A847074B9847012038BD00BFAF
S21408063099020800A9020800CD10080089020800DF
S214080640AD010800C90208002DE9F0410E469046A3
S214080650054668B150200E4FB847044640B106FB21
S21408066005F00130B847206030B92046094B984756
S214080670094B984700BFFDE7E5632664204601213D
S214080680064B984784F84D802046BDE8F08100BFA9
S214080690E9030800A104080099020800CD0508002F
S2140806A02DE9FF47884601929946044618B9374B04
S2140806B0984700BFFDE721B9036C002B5ED18A4638
S2140806C032E04FF0000A2FE0BAF1000F02D102A87C
S2140806D02F4B9847B8472F4B9847B047636C2E4D1B
S2140806E0013304BF00236364A36C013304BF0023F3
S2140806F0A364B84702A801A9284B9847284F0028A2
S21408070037D1B047D4F838A0E66B264B9847B245A1
S2140807102BD104F110000199234B98472046B8477F
S214080720A847F8B14FF0010A204EB047A26BE36B1A
S2140807301C4F9A4211D21E4B204641464A469847BD
S214080740636A3BB104F124001A4B9847012801D18B
S214080750194B9847B847012014E0019D002DB3D1E6
S214080760B84709E0144B9847DCE72046B847A8473F
S214080770D8E72046B847A847002003E0034B984729
S21408078000BFFDE704B0BDE8F08700BF9902080087
S21408079045110800650C0800810D08006D11080059
S2140807A05D050800C90208002D100800A902080007
S2140807B0D5040800CD100800890208002DE9F0418C
S2140807C004460D4616469846174814B9804700BF93
S2140807D0FDE721B9236C13B1804700BFFDE78047CA
S2140807E0E16B0746A06B884217D2104B2046294675
S2140807F042469847A36C01330AD1636A5BB104F199
S21408080024000B4B984730B12EB10124346005E024
S214080810A36C0133A364012400E000243846054B8A
S21408082098472046BDE8F08199020800D5040800DC
S214080830CD100800C10208002DE9FF47884601923E
S2140808409946044618B9444B984700BFFDE721B9B6
S214080850036C002B79D18A463AE04FF0000A37E05D
S214080860BAF1000F02D102A83C4B9847B8473C4B58
S2140808709847B047636CDFF804A1013304BF002330
S2140808806364A36C374D013304BF0023A364B847E1
S21408089002A801A9344B9847344F002850D1B047D6
S2140808A0A66BD047002E47D123682BB9304B984704
S2140808B06068304B9847D04704F1240001992E4BC6
S2140808C098472046B847A847002832D04FF0010A74
S2140808D0274EB047A36B294F33B320464146284BD3
S2140808E0E5689847B9F1000F12D1A36B013BA363E3
S2140808F0236813B9234B9847606023698BB104F1CA
S2140809001000214B984701280BD1204B984708E048
S214080910636AE5602BB104F124001B4B9847002856
S214080920F3D1B847012014E0019D002D98D1B847AF
S21408093009E0164B9847C9E72046B847A847C5E7D1
S2140809402046B847A847002003E0034B984700BF57
S214080950FDE704B0BDE8F0879902080045110800D5
S214080960650C0800810D08006D1108005D0508007B
S214080970A9020800191208002D100800C90208006C
S21408098035050800F1110800CD1008008902080096
S21408099038B504460C4B0D469847636C013304BFC4
S2140809A000236364A36C013304BF0023A364074BCE
S2140809B09847A36B23B904F124002946044B9847AB
S2140809C02046044B984738BDA9020800C90208000B
S2140809D0891008005D05080010B50D4B04461A6816
S2140809E050600C4A126890420B4A05D20B490868B8
S2140809F019680431904710BD094908681968043118
S214080A009047084B1A68944238BF1C6010BD00BF58
S214080A1064AA072080AA0720E501080084AA072000
S214080A20C4A90720F40007202DE9F84F0A9E8A4635
S214080A3015469946DDF830B0804618B9544B9847A5
S214080A4000BFFDE7042E03D9514B984700BFFDE7CA
S214080A504C20504FB8470446002800F09580BBF15C
S214080A60000F02D1A800B84700E05846206318B91E
S214080A702046494B984787E0AD002A46A521474BB4
S214080A809847236B043D51460A221D4404F134005E
S214080A90434B984704F1040A002384F83D30504637
S214080AA0DFF844B1E662A664D84704F11800D847D0
S214080AB025F00705C6F10503A3612461394B646276
S214080AC0284641464A4698474307206003D0304B9D
S214080AD0984700BFFDE70B9B03B11C60324B984755
S214080AE0324B334D1A68DFF8049101321A602F68CA
S214080AF0F7B92C601B68012B22D109EB0700DFF839
S214080B00F0801437C047642FF7D1DFF8E8B0294FD4
S214080B105846C0473846C0472748C0472748C047B2
S214080B202748C047274BC3F800B0274B1F6007E08D
S214080B30264B1B6823B92B68DB6AB34298BF2C6028
S214080B40234AE36A116814208B42224988BF13603F
S214080B500A6800FB0390226401320A601E4A116884
S214080B608B4288BF136051461C4B98471C4B9847CE
S214080B70164B1B682BB12B68DB6AB34201D2194BA4
S214080B8098470120BDE8F88F4FF0FF30BDE8F88F92
S214080B9099020800E9030800A1040800652808006F
S214080BA0D12A080051020800A902080090AA0720C6
S214080BB064AA0720E8A9072068AA0720B0A9072082
S214080BC09CA90720C4A9072084AA0720CCA9072027
S214080BD098AA07208CAA072088AA0720C901080017
S214080BE0C902080089020800C3010800FCA90720FA
S214080BF0AD010800D4A9072030B5002485B0114DF2
S214080C0000940194029403940F48104982222346C4
S214080C10A847012805460DD10D4B984701280546DB
S214080C2008D10C4B98470C4B1D600C4B1C600C4BAA
S214080C30984704E01DB9074B984700BFFDE705B085
S214080C4030BD00BF290A08003D0F08007A5A080080
S214080C507513080099020800CCA9072080AA072067
S214080C6065030800024A136801331360704700BF23
S214080C707CAA072010B5044B9847044B1C68044B05
S214080C809847204610BD00BFA902080080AA072082
S214080C90C90208002DE9F0412D4B1B68002B51D1E5
S214080CA02C4B1A681E4601321A601A68E2B92A4B9B
S214080CB01A6812681AB1294B984700BFFDE7284AF8
S214080CC0196810681860116026490A6801320A60B7
S214080CD01A681168244A11B94FF0FF3303E01B68FD
S214080CE0DB68DB685B6813601F4C326823689A42CF
S214080CF02CD3194B1A68126812B94FF0FF3306E066
S214080D001B68DB68DD6832686B689A4202D223602B
S214080D10BDE8F0812F1D3846DFF86080C047AB6A13
S214080D2013B105F11800C047104AEB6A1168142081
S214080D308B4288BF13600E4A394600FB03200D4BD2
S214080D409847D6E70C4A136801331360BDE8F0816C
S214080D507CAA072080AA0720C4A9072099020800B1
S214080D6084AA072060AA0720F400072088AA07207C
S214080D70FCA90720C9010800C8A907201502080011
S214080D80F8B52A4C23681BB9294B984700BFFDE7DE
S214080D90284B98472368013B236024680CB100243D
S214080DA03FE0254B1B68002BF9D0244B1A68EAB1A4
S214080DB0DB68234FDD682E1D05F11800B84730465E
S214080DC0B847204AEB6A116814208B4288BF136024
S214080DD01D4A314600FB03201C4B98471C4BEA6A09
S214080DE01B68DB6A9A4228BF0124DEE7194B1A689B
S214080DF01D4642B12B68174C3BB1174B98472368E2
S214080E00013B2360F6E7012C06D1144B00221A603A
S214080E10134B9847012404E0104B1B68012BBED1E6
S214080E20F3E7104B98472046F8BD00BF7CAA07207A
S214080E3099020800A902080090AA072068AA0720B5
S214080E401502080088AA0720FCA90720C90108007F
S214080E5064AA0720C8A90720950C080094AA0720AA
S214080E6089020800C902080038B50C46054618B9B4
S214080E70174B984700BFFDE719B9154B984700BFB1
S214080E80FDE7144B9847144A2B6811681C4499428E
S214080E9002D29C4208D201E09C4207D313689C42C7
S214080EA094BF0023012302E0002300E001232C6006
S214080EB03BB10A4B18680A4B043098472046094B42
S214080EC09847094B984708B9084B984738BD00BF5C
S214080ED099020800650C080080AA072064AA072063
S214080EE015020800D9090800810D080089020800C3
S214080EF010B5044610B90A4B984710BD094B9847D9
S214080F00094B1B681C44094B1868094B0430984762
S214080F10084B20469847084B98470028EBD010BD4A
S214080F2089020800650C080080AA072064AA072022
S214080F3015020800D9090800810D080008B5144CE8
S214080F402368EBB1134D144B98472E68134B9847FC
S214080F50002EF4D0124B9847EB68DD68114B281D1D
S214080F609847114A1368013B13602368013B2360C6
S214080F700E4B98470E4C286BA0472846A047DEE73E
S214080F800C4B1B68012BDAD90B4B9847D7E700BFE9
S214080F90D0A90720B0A90720650C0800810D080015
S214080FA0A90208001502080090AA0720C90208002E
S214080FB0A1040800FCA907208902080010B5154BF3
S214080FC01B682BB10122144B22E00B68013B0B6017
S214080FD0124914230868124A5843105830B90B6847
S214080FE0002BF2D10F4B984700BFFDE709684B432B
S214080FF0D018446808336468134444609C4204BFAD
S21408100063684360142303FB01225368DA68064BBF
S2140810101A6010BD7CAA072094AA072088AA072071
S214081020FCA907209902080064AA072038B50D46CF
S21408103018B90D4B984700BFFDE70C4C0C4B2168C0
S2140810401831984720680B4B043098476B1C05D11D
S214081050216809480431094B984738BD084B186879
S214081060084B2844984738BD9902080064AA072008
S214081070E5010800150208009CA90720C901080018
S21408108080AA0720D909080038B50D4618B9094BB3
S214081090984700BFFDE7084C084B21681831984769
S2140810A02068074B04309847064B1868064B2844B8
S2140810B0984738BD9902080064AA0720C9010800A5
S2140810C01502080080AA0720D9090800F8B5C368E1
S2140810D0DC681CB9134B984700BFFDE704F11806F7
S2140810E03046114FB847114B114D1B686BB9261D7A
S2140810F03046B8470F4AE36A116814208B4288BF07
S21408110013600D4A00FB032000E00C483146A84750
S2140811100B4BE06A1B68DB6A984234BF002001204C
S214081120F8BD00BF99020800150208007CAA07202F
S214081130C901080088AA0720FCA9072068AA072072
S21408114064AA072008B518B9054B984700BFFDE7FD
S214081150044B1B680360044B1B68436008BD00BF54
S2140811609902080060AA072080AA072038B50D460D
S214081170044618B9154B984700BFFDE719B9134B35
S214081180984700BFFDE7124B98472B685A1C15D0A6
S214081190104A1168226891420F4A616802D01068A6
S2140811A088420DD21268521A9A4209D20A4A204632
S2140811B01268521A9B1A2B60084B9847002400E0C6
S2140811C00124074B9847204638BD00BF99020800FF
S2140811D0A902080060AA072080AA0720451108006F
S2140811E0C9020800014B01221A60704794AA07201A
S2140811F0014B1868704700BF64AA0720044B18689C
S21408120028B1044B1B68002B0CBF01200220704736
S214081210CCA907207CAA0720F8B5044640B3154D8C
S214081220C36A2A68D26A934222D22A68D26AC2F16C
S214081230050282611048142202FB0303626906460F
S2140812409A4212D1271D38460C4B98472B680C4AF1
S214081250DB6A116814208B42E36288BF136000FBC8
S21408126003603946074B9847F8BD2B68DB6AE3628C
S214081270F8BD00BF64AA0720FCA9072015020800CD
S21408128088AA0720C901080038B50446C0B1C26A52
S214081290836C9A4214D0051D0A4B28469847A36CBF
S2140812A01420C3F10502A261074AE36211688B4263
S2140812B088BF1360054A294600FB0320044B98475D
S2140812C038BD00BF1502080088AA0720FCA9072019
S2140812D0C90108002DE9F0410D4C0E4B98472568CA
S2140812E08DB90D4F0D4E3846DFF84480C04730465E
S2140812F0C0470B4B05201F600A4B0C211E602A4670
S214081300094B98472060094B9847BDE8F08100BF15
S214081310CCAA0720A9020800A0AA0720B4AA07207A
S2140813209CAA0720D0AA072049060800C902080078
S214081330AD01080010B5044691424160206105D809
S214081340D21A83699A420CD2074B04E09A4201D219
S214081350994206D2054B1868211D054B9847002070
S21408136010BD012010BD00BFD0AA07209CAA0720E8
S214081370E50108001FB50D4B98470D4B1B6813B9C0
S2140813800C4B98470FE00423009300230193029325
S2140813900393094809494FF48272094CA04700286C
S2140813A0EED004B010BD00BFFDE700BFD5120800A0
S2140813B0CCAA072099020800911408007F5A080052
S2140813C0290A08007FB50F4D064628681C46B0B1A6
S2140813D00191029203966BB90B4B9847012818BFE8
S2140813E022460A4E286801A906BF089A23461346CD
S2140813F0B04704E01A4601A90023054CA04704B0EC
S21408140070BD00BFCCAA0720FD110800A106080081
S214081410BD070800F7B5184D2B681A682AB3DA68AE
S2140814201668DB68DC68154B271D38469847636ADC
S21408143020469847E369012BEDD1A3693344B342AC
S21408144006D963602461286839460D4B9847E2E759
S21408145000212046009132460B460A4CA047002839
S214081460D9D1094B984700BFFDE7084A11681360B1
S214081470296003B0F0BD00BF9CAA0720150208002B
S214081480E5010800C513080099020800D0AA07203D
S2140814902DE9F04786B0DFF880A1DAF800301C683E
S2140814A0B4FA84F4640914B9DB681E6800E0002600
S2140814B04C4B4D4D9847A847DFF860810746D8F84B
S2140814C00030A946984203D2484B9847012300E0CB
S2140814D00023C8F80070464D002B30D12CBBBE4206
S2140814E023D8A847DAF80030DB68DD68414B281DAA
S2140814F09847EB69012B14D1A9693A462846314426
S21408150033463D4FB84701280BD100942146234661
S21408151028463246394CA04718B9394B984700BF79
S214081520FDE76B6A284698470AE0364BF11B1868B1
S214081530354B9847A84718B9344B984700E0A84752
S214081540C847D8F800300546984201D2274B984736
S214081550C8F800502B4B0022186803A913462C4CD9
S214081560A047002897D0059C24B1636913B1201DB5
S214081570204B9847039E022E21D0032E2DD0002EF6
S214081580E8D1049BA169204619442A461A4FB84751
S2140815900128DFD1636A20469847E369012BD9D131
S2140815A0A269049B20461A44009631463346134CDB
S2140815B0A0470028CED1124B984700BFFDE70499F4
S2140815C0A16119B90E4B984700BFFDE7204629448C
S2140815D02A462B46084CA047BCE720460D4B9847A2
S2140815E0B8E700BF650C0800750C0800151408005D
S2140815F0810D08001502080035130800C5130800F9
S21408160099020800CCAA0720910908008902080058
S21408161039080800A10408009CAA0720C8AA0720C1
S21408162037B5114B0DF1070101221048984772B6DD
S214081630BFF35F8F0E499DF807500B780D4C9B2B18
S2140816400D4AE55418BF01334FF0000018BF0B7061
S2140816504FF00103107008BF08701370BFF35F8F58
S21408166062B603B030BD00BF0D1A080000800940FE
S21408167070AB0720D4AA0720FC00072013B5002368
S21408168001931B4B0C46984206D119482146194B24
S21408169098470028F9D128E0174B984206D11648F3
S2140816A001A9164B98470028F9D11CE0144B98421C
S2140816B006D1134801A9114B98470028F9D112E022
S2140816C0104B984206D10F4801A90C4B98470028A2
S2140816D0F9D108E00C4B984207D10B4801A9074BF3
S2140816E098470028F9D1019B237002B010BD00BFAF
S2140816F000080E409D1B080000800940970108005E
S21408170000C0094000000A4000400A401B4B10B5C4
S21408171098420C4607D119482146194B9847002885
S214081720F9D1012010BD174B984206D1154821461D
S214081730154B98470028F9D1F3E7144B984206D181
S21408174012482146104B98470028F9D1E9E7104B74
S214081750984206D10E4821460B4B98470028F9D1E7
S214081760DFE70C4B984206D10A482146064B9847B5
S2140817700028F9D1D5E7002010BD00BF00080E40AC
S2140817808F1B0800008009408501080000C009403A
S21408179000000A4000400A4030B5082085B0124DC7
S2140817A0A847124C124B134A1C60134B08201A60A9
S2140817B0124A134B1A60134B01934FF4E13302930A
S2140817C04FF400630393A8470F4D01A920460F4B1B
S2140817D098472B680E4C98680021A0472B68002174
S2140817E05868A04705B030BDCD1F080000080E4059
S2140817F024AC07200D17080020AC07207D1608002B
S2140818001CAC072000BD010530050720591B080041
S214081810352908002DE9F0411F4B88B0984700216C
S2140818200190142203A81D4B98471D4C1D48A0473D
S2140818301D4B03A898471D4B03A8984708AF47F8C1
S214081840180DDFF88880054619493846194EB047FE
S214081850B8F8003023B9184B28469847174B188015
S2140818602846A0471648A04738461149029DB04763
S214081870B8F8003023B9104B28469847114B188003
S2140818802846A0470E48A0470123A8F8003001A81C
S21408189032210D4B9847CBE7750C080065280800E1
S2140818A051270800875A0800F12608003D2A080034
S2140818B0975A0800392B08009D2608002CAC0720EC
S2140818C0785A080028AC0720690E080072AB072073
S2140818D037B50B4B984701900A4C238853B10A4BEF
S2140818E042201988094DA847094B43201988A8475C
S2140818F00023238001A83221064B9847ECE700BF57
S214081900750C080072AB07202CAC072019190800C4
S21408191028AC0720690E080038B5430903F50013FC
S21408192003F2077300F01F0001255C028540064B92
S2140819300846256398470549054B9847054B984739
S214081940054B9847656338BD0D23080000007A44A8
S214081950252508005D260800F10E08001C4B4FF0F0
S21408196080625A61C3F8A020A3F500734FF4804242
S2140819705A61C3F8A0204FF400425A61C3F8A02069
S2140819800122C3F81426C3F8A0260222C3F8142698
S2140819900421C3F8A02640200822C3F81416C3F86A
S2140819A0A016C3F81426C3F8A026C3F81406C3F86E
S2140819B0A0064FF48060C3F81006C3F8A0060344D8
S2140819C01961C3F8A0101A61C3F8A020704700BFB9
S2140819D000100E400138022870B50E460ED80C4688
S2140819E08D18AC42A4EB06000BD0064B14F8011B6E
S2140819F01868054B1B6898470028F2DA4FF0FF3046
S214081A0070BD70BD24AC072020AC072073B5054612
S214081A100C468E18B44236D0002301931B4B9D42C9
S214081A2006D11A4821461A4B98470028F9D128E0CB
S214081A30184B9D4206D1174801A9174B984700280E
S214081A40F9D11CE0154B9D4206D1144801A9124B4A
S214081A5098470028F9D112E0114B9D4206D110484C
S214081A6001A90D4B98470028F9D108E00D4B9D4277
S214081A7007D10C4801A9084B98470028F9D1019BC3
S214081A8023700134C6E7002002B070BD00080E407F
S214081A909D1B0800008009409701080000C0094007
S214081AA000000A4000400A407FB51D4B98471D4B72
S214081AB098471D4B98471D4C0B20A0470C20A04765
S214081AC00D20A0470E20A047194B98470322012057
S214081AD00021184B9847184A106020B100210A4682
S214081AE00B46164CA047002401262346144D0096A4
S214081AF001940294039413494FF400721248A847BD
S214081B0012494FF4007223460096019402940394F7
S214081B100F48A8470F4B9847204604B070BD00BF33
S214081B20AD1B0800111C080099170800CD1F0800F7
S214081B305D19080049060800F8000720A1060800F5
S214081B40290A0800995A0800151808009D5A08001E
S214081B50D1180800F90B0800AC2310B503604A68D2
S214081B600B68B3FBF2F34FF6FE721B095C1E944239
S214081B709FBF03628B68436040F202239FBFC0F892
S214081B80203150230360002088BF012010BD436920
S214081B909B0746BFC1610020012070474369DB07E9
S214081BA043BF836900200B700120704710B50E48AC
S214081BB00E4CA04700203E210D4B98470D4B9847EA
S214081BC00028FBD00C4B98470C4A0D4B9A620D4BDD
S214081BD098470028FBD00C4B102098470B4B98478B
S214081BE00148A04710BD00BF00BD010589000720B9
S214081BF0511F08009D1F0800AD1F0800013F0D205B
S214081C0000060E40BD1F08000D1F08008D200800A6
S214081C10134B4FF4004210B50B205A60114CA047E6
S214081C200C20A0470D20A0470E20A0470E4C4FF0D2
S214081C3060513B20A0474FF060515520A0474FF019
S214081C4060515620A04709496820A04708495C20EB
S214081C50A0474FF44071074A074B0848984710BDFD
S214081C60501A0E40CD1F0800151D080079000028E0
S214081C700100002801000008D91D0800000E0E40CB
S214081C80B1F1805F426414D009D8B1B1B1F1006FE8
S214081C9012D1036F016F0B4023EA02030BE0B1F188
S214081CA0405F0AD0B1F1605F07D0B1F1205F03D181
S214081CB07047036F1343036742607047D307416456
S214081CC04CBF4166016612F00A0F14BF01624162FA
S214081CD0930702D5C0F8801003E0130748BFC0F882
S214081CE0841041610160704710B5029C41640CB1D4
S214081CF0416600E001660BB1016500E041650AB186
S214081D00016300E041630161016010BDC06C70476B
S214081D10806C7047F7B545090E4605F5001501F0C5
S214081D20F04105F20775B1F1205F4FEA45252BD043
S214081D3014D8B1F1006F18D0B1F1805F42D100F02D
S214081D401F02012000FA02F36B642A6F1A432A67FF
S214081D50F2076B604CBF6B662B6634E0B1F1405FF0
S214081D601CD0B1F1605F19D02CE000F01F000124F0
S214081D7004FA00F73A462846144B9847F1074CBF32
S214081D806F662F6620461EE000F01F02012404FA44
S214081D9002F1284632460E4B9847F3E7012406F030
S214081DA0605206EA0403009302F148435A4200F0E0
S214081DB01F015A41284604FA01F1C6F38003054D6F
S214081DC0A847DFE7002003B0F0BD00BF811C08006D
S214081DD0BD1C0800E91C080002F0F043B3F1205FC0
S214081DE073B505460C4616461CD00BD8B3F1006FE3
S214081DF00FD0B3F1805F29D16964036F0B43036783
S214081E0069600AE0B3F1405F10D0B3F1605F0DD0AF
S214081E101CE0194622460F4B9847F2074CBF6C66E3
S214081E202C6601E00C4B9847012010E006F0605243
S214081E3006F00103009302F148435A4221465A41EC
S214081E402846C6F38003054CA047EDE7002002B0FD
S214081E5070BD00BF811C0800BD1C0800E91C0800F6
S214081E60F8B5134B04460F469847124B05462046CE
S214081E70984705401BD0104C04F1600654F80C3CFB
S214081E80BB4210D154F8081C29420CD023683846A7
S214081E90984754F8083CB44225EA030507D010349E
S214081EA0002DEBD1F8BDB44201D01034E6E7F8BDFA
S214081EB00D1D0800111D080080AB072008B5024854
S214081EC00B21024B984708BD000E0E40611E080005
S214081ED008B502480C21024B984708BD00100E4072
S214081EE0611E080008B502480D21024B984708BD38
S214081EF000120E40611E080008B502480E21024B6B
S214081F00984708BD00140E40611E08000F4B1A6B58
S214081F1022F07002104340F601021863986E0B49CF
S214081F20000703D4013AF9D1012070470A6B22F062
S214081F30030242F002020A6340F60102996E09079C
S214081F4002D4013AFAD1EFE70020704700060E40A7
S214081F500F4A136A28B10F4919400F4B0B431362F7
S214081F60704723F45C1323F0030343F45C1309025D
S214081F7043F0010389B20B431362936E0449DB07EF
S214081F80FBD50B6A43F09B7343F480330B627047B0
S214081F9000060E40FCFFC8FE02003701024B986E92
S214081FA000F48030704700BF00060E40024B4FF02A
S214081FB000529A62704700BF00060E40024B986EA9
S214081FC000F00200704700BF00060E402C2815D807
S214081FD01F280C4A4FF0010306D891698340194020
S214081FE099420DD013610BE0D2F8081120388340CF
S214081FF01940994204D0C2F8003101E00120704728
S2140820000020704700060E40FEE7000008B5164A96
S214082010164B9A4201D0043A01E0154B07E01549E1
S2140820208B42FAD252F8041F43F8041BF7E7124A09
S214082030934203D2002243F8042BF8E70F4B104ACA
S21408204023F0604121F07F0103F16043B3F5801F60
S21408205091603EBF936843F000539360094B9847DE
S214082060094B9847FEE700BF305C080000000720D1
S214082070700907207009072034AC07200000080004
S21408208000ED00E001270800A91A080010B52C4A40
S214082090136B03F00303012B2A4B0DD003D3116AED
S2140820A0CC011AD525E02849496908064CBF4FF4E3
S2140820B000414FF4FA4130E0116AC9010BD42349B4
S2140820C01960116A01F07001102902D0202902D087
S2140820D024E01F4921E01F491FE01C491960116AC6
S2140820E001F07001102902D0202902D003E0184917
S2140820F000E018491960116B114801F00301022924
S21408210001BF816A806AC1F30A44196803BFC0B276
S21408211004FB0111B1FBF0F10F491960126B02F0D4
S2140821207002702A03BF1A680321B2FBF1F2044A50
S2140821301FBF116B1A68C1F30211CA401A6010BD9E
S21408214000060E4000010720101A0E4000093D0048
S21408215000127A00001BB700001C4E0E074B1A68C8
S2140821600AB9074A1A601B68064A18449042DDBF37
S214082170024A106018464FF0FF307047E4AB07205D
S21408218038CC0720FC7F08204FF0FF3070474FF40C
S21408219000534B60002070470120704700207047AE
S2140821A080F0004002E000BF81F0004142001FBFFF
S2140821B05FEA410392EA030F7FEA226C7FEA236C08
S2140821C06AD04FEA1262D2EB1363C1BFD2184140FD
S2140821D048404140B8BF5B42192B88BF704710F093
S2140821E0004F40F4000020F07F4018BF404211F036
S2140821F0004F41F4000121F07F4118BF494292EA9E
S214082200030F3FD0A2F1010241FA03FC10EB0C00C9
S214082210C3F1200301FA03F100F0004302D5494256
S21408222060EB4000B0F5000F13D3B0F1807F06D303
S21408223040084FEA310102F10102FE2A51D2B1F1FB
S214082240004F40EBC25008BF20F0010040EA0300F0
S2140822507047490040EB000010F4000FA2F101029D
S214082260EDD1B0FA80FCACF1080CB2EB0C0200FA27
S2140822700CF0AABF00EBC25052421843BCBFD04075
S2140822801843704792F0000F81F4000106BF80F4EF
S21408229000000132013BB5E74FEA41037FEA226CB2
S2140822A018BF7FEA236C21D092EA030F04D092F07D
S2140822B0000F08BF0846704790EA010F1CBF0020B1
S2140822C0704712F07F4F04D1400028BF40F000400E
S2140822D0704712F100723CBF00F50000704700F02E
S2140822E0004343F0FE4040F4000070477FEA226255
S2140822F016BF08467FEA23630146420206BF5FEA26
S214082300412390EA010F40F4800070474FF0000325
S21408231004E000BF10F0004348BF40425FEA000CEC
S21408232008BF704743F0964301464FF000001CE094
S21408233050EA010208BF70474FF000030AE000BFEA
S21408234050EA010208BF704711F0004302D5404228
S21408235061EB41015FEA010C02BF8446014600209A
S21408236043F0B64308BFA3F18053A3F50003BCFAB5
S2140823708CF2083AA3EBC25310DB01FA02FC634462
S21408238000FA02FCC2F12002BCF1004F20FA02F269
S21408239043EB020008BF20F00100704702F120025C
S2140823A001FA02FCC2F1200250EA4C0021FA02F2BD
S2140823B043EB020008BF20EADC7070474FF0FF0CC2
S2140823C01CEAD0521EBF1CEAD15392EA0C0F93EABD
S2140823D00C0F6FD01A4480EA010C400218BF5FEA5F
S2140823E041211ED04FF0006343EA501043EA5111D2
S2140823F0A0FB01310CF00040B1F5000F3EBF4900CC
S21408240041EAD3715B0040EA010062F17F02FD2ACF
S2140824101DD8B3F1004F40EBC25008BF20F00100B2
S214082420704790F0000F0CF0004C08BF49024CEAC9
S214082430502040EA51207F3AC2BFD2F1FF0340EA5B
S214082440C250704740F400004FF00003013A5DDCCC
S21408245012F1190FDCBF00F000407047C2F100020D
S214082460410021FA02F1C2F1200200FA02FC5FEAFA
S214082470310040F1000053EA4C0308BF20EADC7044
S214082480704792F0000F00F0004C02BF400010F4B6
S214082490000F013AF9D040EA0C0093F0000F01F063
S2140824A0004C02BF490011F4000F013BF9D041EA85
S2140824B00C018FE70CEAD15392EA0C0F18BF93EA87
S2140824C00C0F0AD030F0004C18BF31F0004CD8D1B1
S2140824D080EA010000F00040704790F0000F17BF38
S2140824E090F0004F084691F0000F91F0004F14D07E
S2140824F092EA0C0F01D142020FD193EA0C0F03D1D6
S2140825004B0218BF084608D180EA010000F00040D8
S21408251040F0FE4040F40000704740F0FE4040F4B3
S214082520400070474FF0FF0C1CEAD0521EBF1CEA52
S214082530D15392EA0C0F93EA0C0F69D0A2EB030270
S21408254080EA010C49024FEA402037D04FF080530A
S21408255043EA111143EA10130CF000408B4238BFCF
S2140825605B0042F17D024FF4000C8B4224BF5B1ADD
S21408257040EA0C00B3EB510F24BFA3EB510340EA2B
S2140825805C00B3EB910F24BFA3EB910340EA9C00D9
S214082590B3EBD10F24BFA3EBD10340EADC001B0149
S2140825A018BF5FEA1C1CE0D1FD2A3FF650AF8B42ED
S2140825B040EBC25008BF20F0010070470CF0004CFA
S2140825C04CEA50207F32C2BFD2F1FF0340EAC25025
S2140825D0704740F400004FF00003013A37E792F0E6
S2140825E0000F00F0004C02BF400010F4000F013A44
S2140825F0F9D040EA0C0093F0000F01F0004C02BF3F
S214082600490011F4000F013BF9D041EA0C0195E7A7
S2140826100CEAD15392EA0C0F08D142027FF47DAF40
S21408262093EA0C0F7FF470AF084676E793EA0C0F30
S21408263004D14B023FF44CAF08466EE730F0004C2E
S21408264018BF31F0004CCAD130F000427FF45CAFBE
S21408265031F000437FF43CAF5FE700BF42000ED284
S214082660B2F1FE4F0BD34FF09E03B3EB126209D4C0
S2140826704FEA002343F0004323FA02F070474FF076
S2140826800000704712F1610F01D1420202D14FF0EB
S214082690FF3070474FF00000704700BF00210A2245
S2140826A000F010BBF8B50F4605460C460F4E07E07F
S2140826B00B685A1C0A6018780A2811D004F8010B0F
S2140826C0336859684B68013B002B4B60F0DA2846A4
S2140826D000F016F90A2803D0431CEFD1A74203D00E
S2140826E0002323703846F8BD0020F8BD30050720C3
S2140826F0024B01461868FFF7D5BF00BF3005072014
S21408270070B50F4E0F4D761BB61018BF002405D0B7
S214082710013455F8043B9847A642F9D10A4E0B4DAA
S21408272003F070FA761BB61018BF002406D00134E2
S21408273055F8043B9847A642F9D170BD70BD00BF56
S214082740105C0800105C0800185C0800105C0800A4
S2140827500FB410B5074B82B004AC54F8042B1868B5
S21408276023468168019400F0F5FA02B0BDE81040EF
S21408277004B0704730050720844641EA000313F08A
S214082780030349D1403A23D30B6803604B68436080
S2140827908B688360CB68C3600B6903614B694361D0
S2140827A08B698361CB69C3610B6A03624B6A4362B8
S2140827B08B6A8362CB6AC3620B6B03634B6B4363A0
S2140827C08B6B8363CB6BC36340304031403ADBD2BC
S2140827D030320BD30B6803604B6843608B688360AA
S2140827E0CB68C36010301031103AF3D20C3205D3E0
S2140827F051F8043B40F8043B043AF9D2043208D0B6
S214082800D2071CBF11F8013B00F8013B01D30B8827
S21408281003806046704700BF082A13D38B07B1D0E1
S21408282010F00303AED0C3F10403D21ADB071CBFB3
S21408283011F8013B00F8013BA4D331F8023B20F81D
S214082840023B9FE7043AD9D3013A11F8013B00F856
S214082850013BF9D20B7803704B7843708B78837002
S2140828606046704770B4840746D0541E002A41D08C
S214082870CDB2034602E0621EE4B3144603F8015BD9
S2140828809A07F8D1032C2ED9CDB245EA05250F2C88
S21408289045EA054519D9264603F11002103E0F2EC3
S2140828A042F8105C42F80C5C42F8085C42F8045C9B
S2140828B002F11002F2D8A4F1100222F00F0204F07E
S2140828C00F041032032C13440DD91E462246043A30
S2140828D0032A46F8045BFAD8221F22F003020432C1
S2140828E0134404F003042CB1C9B21C4403F8011BBA
S2140828F0A342FBD170BC704714460346C2E700BF2C
S21408290038B50C46054608B1836B63B128462146A0
S21408291002F062FB50B994E80C00013B511C84E8B5
S2140829200A00107838BD01F017FAEFE74FF0FF30CD
S21408293038BD00BF00290CBF022200224FF4806376
S21408294000F000B82DE9F0413A4D04462E6890464E
S2140829500D461F4616B1B36B002B3CD0B8F1020FDC
S2140829602FD8002F2DDB2146304601F04FF9A189DC
S21408297000236360A3610B0627D421F0830189B284
S214082980B8F1020FA1812AD0002D36D0B8F1010F78
S21408299011D089B201F00800274B80B2F363256096
S2140829A02561676178B111F0030F18BF0027002072
S2140829B0A760BDE8F08141F001017B42A181A361D7
S2140829C0E7E74FF0FF30BDE8F0812169304601F0B7
S2140829D09BFAA189D1E7304601F0BEF9BEE7002090
S2140829E004F1430341F0020100250122A181A560FC
S2140829F0236023616261BDE8F081002F08BF4FF4B1
S214082A008067384601F0AEFD054628B1A18941F039
S214082A10800189B2A181B9E74FF4806001F0A2FD78
S214082A20054618B9A1894FF0FF30D9E74FF48067FB
S214082A30ECE700BF300507205D3C0800024B014666
S214082A40186800F003B800BF3005072070B50646C2
S214082A5008460D4600F00EF8441C2146304601F0A4
S214082A6089FD064618B129462246FFF785FE3046F8
S214082A7070BD00BF20F0030110F00300C0F1000095
S214082A8051F8043B00F1040C4FEACC0C6FF000023E
S214082A901CBF22FA0CF213434FF0010C4CEA0C2C24
S214082AA04CEA0C4CA3EB0C0222EA030212EACC1204
S214082AB004BF51F8043B0430F4D0C2F1000102EA26
S214082AC00102B2FA82F2C2F11F0200EBD20070478E
S214082AD040EA01039B0770B42BD1032A29D90C4678
S214082AE00346214654F8046BA6F1013525EA060587
S214082AF015F0803F05D1043A032A43F8046B2146B3
S214082B00EFD8A2B10C78013A1C70013101333CB100
S214082B106AB111F8014B013A03F8014B002CF7D1C2
S214082B202AB11A44002103F8011B9342FBD170BC5A
S214082B3070470346E5E700BF02460023006800F03A
S214082B4001B800BFF0B420B307460D4617F8016B6E
S214082B5001E0A64216D015F8014B002CF9D1EEB1CB
S214082B603E460C4616F8015B00E073B114F8013BCC
S214082B70AB42FAD15DB100233B701660064630467C
S214082B80F0BC704763B13846DEE73746E8E72E46BE
S214082B90F3E710680028D7D10646F0E71660EEE798
S214082BA0176006460370EAE72DE9F04F444C834663
S214082BB00E46D4F800E000E02646344614F8015BDA
S214082BC00EEB0500407800F0080000F0FF0800282B
S214082BD0F2D12D2D4BD02B2D04BF7578B41C1BB10C
S214082BE0102B60D09A4603E0302D54D00A239A461C
S214082BF0B8F1000F14BF4FF000406FF00040B0FB74
S214082C00FAF90027BC460AFB19000CE0303DAB4237
S214082C1019DD7E1C05D0CC4524D821D00AFB0C5CD7
S214082C20012714F8015B0EEB0506767816F0040FFC
S214082C30ECD116F0030606D0012E0CBF3726572611
S214082C40AD1BAB42E5DC7B1C16D0C8F100008CEA55
S214082C50000040444AB107B1611E1160BDE8F08F1C
S214082C608542DBDD4FF0FF37DBE7BDE8F08FB41CAD
S214082C7075784FF00108B2E7B8F1000F4FF022035D
S214082C8014BF4FF000406FF00040CBF80030002A29
S214082C90E2D1BDE8F08F237803F0DF03582B09D084
S214082CA008239A46A4E7302D9CD1207800F0DF0050
S214082CB0582897D14FF0100A65785346023497E79C
S214082CC03405072030B40D46034C134601462A4601
S214082CD0206830BCFFF768BF300507204B6E2DE92B
S214082CE0F0479C040F4692462BD59368126833B378
S214082CF0804602F1080919E96000B60817D0043DB5
S214082D00002401E0A64210D0404655F8041F3A4673
S214082D1001F09AF8431C04F10104F3D10023CAF821
S214082D200830CAF80430BDE8F087DAF80830A3EBB4
S214082D308603CAF8083009F10809002BDBD1002001
S214082D40ECE701F0B9F90023CAF80830CAF80430ED
S214082D50BDE8F0872DE9F04FABB01C4600919346CE
S214082D600493019018B1836B002B00F0E380009B5E
S214082D7099898AB2900408D418465B6E41F40052CA
S214082D8023F400538281436692B2110740F1B28061
S214082D90009B1B69002B00F0AD8002F01A020A2A7D
S214082DA000F0B4800DF1680A544600230993029394
S214082DB00F930E93CDF834A09BF80030002B00F04C
S214082DC0A384252B00F0A0845A4601E0252B03D0C7
S214082DD012F8013F002BF9D1CBEB0206154696B147
S214082DE00E9B0F9A01333244072BC4F800B0666076
S214082DF00F920E9379DD002A40F0AD845446029B6C
S214082E000E92334402932B78002B00F05F834FF02A
S214082E10000300214FF0FF3C8DF82F30681C6B78BC
S214082E2088460D46664600F1010BA3F12002582A93
S214082E3000F2AA82DFE812F09A02A802A802A2020A
S214082E40A802A802A802A802A802A80254026002C1
S214082E50A8020D016C02A80229012F012F012F01DB
S214082E602F012F012F012F012F012F01A802A802E1
S214082E70A802A802A802A802A802A802A802A802F5
S214082E803D01A802A802A802A802A802A802A80251
S214082E90A802A802A8027401A802A802A802A8020A
S214082EA0A8028B01A802A802A301A802A802A802E9
S214082EB0A802A802A802A802A802A802A802C70197
S214082EC0DA01A802A802A8022301DA01A802A802C9
S214082ED04B02A80288021301F4010702A8020D0299
S214082EE0A8028100A802A80232020834029B3344D2
S214082EF0029388E70198009900F072FDA8B9009B34
S214082F009A8902F01A020A2A7FF44CAF009BB3F99A
S214082F100E30002BFFF646AF019800995A46234616
S214082F2000F020FD2BB0BDE8F08F4FF0FF302BB03F
S214082F30BDE8F08F00F010FF19E718F0200F039592
S214082F40B44600F00C81049B073323F0070303F113
S214082F500802D3E90067049201234FF00002E14615
S214082F608DF82F200025BCF1000FA8BF28F0800898
S214082F7056EA070240F0C480BCF1000F00F08083D8
S214082F80012B00F0C580022B00F086835146F2081C
S214082F9042EA4772F80806F0070307461646303333
S214082FA056EA070201F8013DF1D118F0010F079122
S214082FB040F0FA83C1EB0A09E1454E46B8BF6646BB
S214082FC005B1013618F00203059318BF023618F04B
S214082FD08403069340F0F981039B9D1B002D40F364
S214082FE0F481102D40F38A842046DDF838E06446E4
S214082FF00F9AC44F10237146844607E001F1020E6B
S21408300001460CF1080C103D102D13DD481C10323B
S21408301007280F92CCF80070CCF804300E90EDDD3F
S214083020002A40F0C281103D102D11464FF0010EC7
S214083030D446EBDC63467146A4461C462A44072958
S2140830400F92276065600E9100F346830834481C8B
S214083050BEE1584648F004089BF80030E3E618F04E
S21408306020030395B44662D0049B073323F0070376
S21408307003F10802D3E90067049200236DE748F0DD
S21408308040089BF800305846CDE648F080089BF884
S21408309000305846C7E6A3F1300200251BF8013B6E
S2140830A005EB850502EB4505A3F13002092AF5D99B
S2140830B0BBE648F0100818F0200F0395B4468DF8C4
S2140830C02F1000F09B800499073121F00701D1E901
S2140830D0002316461F4608310491002A73F10003A0
S2140830E0C0F2A483BCF1000FA8BF28F0800856EAF7
S2140830F007029DF82F50E1464FF001033FF43CAF1E
S214083100012B7FF440AF002F08BF0A2E80F03283D1
S2140831102AAB303603F8416DC3EB0A0907934BE731
S21408312048F0100818F020030395B4469CD118F010
S214083130100240F0F78218F0400300F0F38204997A
S21408314013460A4604320E880027049205E748F01C
S214083150100818F0200F0395B4467FF4F4AE049ACE
S21408316018F0100F134640F0E48218F0400F00F0F5
S214083170E08216880432002701230492EDE6624AAC
S21408318018F0200F0395B4468DF82F10099200F01A
S2140831908F80049A073222F0070202F10801049190
S2140831A0D2E9006718F0010F00F08F8256EA07028E
S2140831B000F08B8230228DF8313048F002088DF806
S2140831C030200223C9E6049A012613684FF000014E
S2140831D08DF840301346B1460433049310AB03957C
S2140831E08DF82F1007934FF0000CEBE618F0200F21
S2140831F00395B4468DF82F107FF465AF049A18F03F
S214083200100F134640F0A08218F0400F00F09C8282
S214083210B2F900600433F717049332463B465CE77E
S214083220049978238DF83130384BB44630220E682E
S21408323004310993039548F00208049100278DF895
S2140832403020022389E648F020089BF800305846CC
S214083250E9E54FF00001049A03951368B44607930E
S2140832608DF82F10151D002B00F04E83002EC0F28F
S2140832702983079E624630460021CDF810C001F02B
S214083280FFFBDDF810C0002800F04E830495C6EB5F
S21408329000099DF82F504FF0000C8DE61B4A18F0D9
S2140832A0200F0395B44609928DF82F107FF471AF5E
S2140832B0049918F0100F0A4640F0418218F0400FA3
S2140832C000F03D8204320E88002704926AE79BF8D5
S2140832D000306C2B00F0E98248F010085846A2E54A
S2140832E0049A134615680433002DC0F2E682049348
S2140832F09BF80030584696E59BF8003058462B2138
S21408330091E500BFF05A0800C05A0800D45A0800D1
S2140833109BF800300BF101002A2B00F00F83A3F175
S2140833203002092A83464FF000063FF67EAD1BF8AA
S214083330013B06EB860602EB4606A3F13002092A95
S214083340F5D946EAE67670E518F0200F8DF82F10C6
S21408335000F08382049A134604330493029B116890
S214083360DF171A463B46C1E9002325E558469BF871
S214083370003000297FF457AD202154E548F00108B5
S21408338058469BF800304EE503958DF82F10002B15
S21408339000F09C808DF840304FF0000301268DF831
S2140833A02F3010ABB14607931DE7019800990DAA78
S2140833B00893FFF793FC002840F08F800E99D446B8
S2140833C00F9A01F1010E089B1DE60E990F9A481CEC
S2140833D09DF82F306BB101320DF12F03012107281C
S2140833E00F920E902360616000F334810146083422
S2140833F00130059B63B102320CA9022307280F92FD
S2140834000E9084E80A0000F334810146083401303F
S214083410069B802B00F0D480C9EB0C07002F2BDD11
S214083420102FAB4D1FDDA6461023019C07E001F1C7
S214083430020C01460EF1080E103F102F11DD481C35
S214083440103207280F92CEF80050CEF804300E90AF
S214083450EDDD6ABB103F102F4FF0010C1146D64623
S214083460EDDC744660463A4407280F9284E8A000CC
S2140834700E903BDC0834013002EB0903079A072854
S2140834800F9384E804020E903DDD002B40F03F8148
S21408349018F0040F0E9340F03081029B039A964270
S2140834A0ACBF9B199B18029300230E93544683E4E3
S2140834B0204600990DAA0593FFF710FC68B90E99E7
S2140834C0D6460F9A01F1010C059BB5E70F9B23B171
S2140834D0019800990DAAFFF701FC009B9B895B06E3
S2140834E03FF523AD02982BB0BDE8F08F002A40F0D8
S2140834F090814B46544607990122CDF86C90CDF83A
S2140835003C901A910E9204F1080218F0040F39D074
S21408351003998D1B002D35DD102D40F300820E9883
S2140835206C4F1024DDF80480DDF8009006E000F10A
S214083530020E08460832103D102D10DD411C1033CF
S21408354007290F93176054600E91F0DD002B2AD1DF
S214083550103D102D4FF0010E18465246EEDC2B4457
S214083560BEF1070F0F9317605560CDF838E009DDF8
S214083570002B92D0019800990DAAFFF7AFFB002800
S214083580ABD10F9B029A03998E42ACBF9219521880
S2140835900292002B88D0019800990DAAFFF79EFB8F
S2140835A0002881D099E7404649460DAAFFF796FBC2
S2140835B0002892D10E9852460F9B00F1010EBAE7EA
S2140835C0039B9F1B002F7FF727AF102F40F3B38175
S2140835D020463F4D64461023844607E001F1020E5C
S2140835E001460CF1080C103F102F11DD481C103254
S2140835F007280F92CCF80050CCF804300E90EDDD7A
S214083600C2B9103F102F4FF0010E1146D446EDDC1C
S2140836106346A4461C463A44BEF1070F0F9284E858
S214083620A000CDF838E000F3EE8008340EF1010073
S2140836307146F1E6019800990DAA0593FFF74EFB2F
S21408364000287FF44AAF0E99D4460F9A01F1010E6E
S214083650059BC8E7002A40F0C580059B002B00F0B4
S21408366085800CAA02231A9208461B931A465446CB
S214083670CBE6002A40F0A580012011465446C7E64E
S21408368003BB18F0010F1DD02AAB302203F8412DDA
S214083690C3EB0A0907938FE4D1460998330943EA2E
S2140836A00773390906F00F020F461E46835C09F8B1
S2140836B0013D56EA0703F1D14B46CDF81C90C3EB03
S2140836C00A0979E4CDF81CA076E4022345E400BF95
S2140836D0B05A0800F05A0800002A40F0D5809DF835
S2140836E02F30002B00F0AC8001230DF12F01184677
S2140836F01B931A461A91544678E6039A951B002D92
S21408370052463FF709AFC8E65D46FFF77CBB01980F
S21408371000990DAAFFF7E2FA00287FF4DEAE5246BB
S2140837200F9BF2E6049900270A4604320E680492B4
S21408373013E404321E680027012304920DE4166879
S2140837400432049200272DE51E680433F717049305
S21408375032463B46C1E4019800990DAAFFF7BEFA27
S21408376000287FF4BAAE5446FFF7C0BB0846544656
S21408377011464DE6D146CDF814C0304639460A22E1
S214083780002301F099FE30323046394609F8012DFB
S21408379000230A2201F090FE06460F4656EA070363
S2140837A0EBD1DDF814C087E7302B079B87D0013BA9
S2140837B01A4607933023C2EB0A0901F8013CFFF7C3
S2140837C0FBBB019800990DAACDF814C0FFF786FA3E
S2140837D000287FF482AE0E9954460F9A481CDDF8EE
S2140837E014C015E6019800990DAACDF820C0FFF779
S2140837F075FA00287FF471AE0E9954460F9A481C45
S214083800DDF820C0F5E5002A67D1012011465446A8
S21408381002E6019800990DAAFFF760FA00287FF4DF
S2140838205CAE0E9854460F9A013025E62D25764252
S21408383067EB47078DF82F50E1460123FFF793BB48
S214083840059B114601205446002B3FF4E5AD0CAA13
S21408385002238AE80C001A46D7E518F0100F0BD199
S21408386018F0400F08D0049A136804320492BDF882
S21408387008201A80FFF7A0BA049A13680432049244
S214083880029A1A60FFF798BA019800990DAACDF81F
S21408389020C0FFF723FA00287FF41FAE0E9954467F
S2140838A00F9A481CDDF820C092E548F020080BF176
S2140838B001009BF80130FFF7B6BA6D4204935846EC
S2140838C0FFF7C8BB07980495FFF7D4F89DF82F5064
S2140838D081464FF0000CFFF76FBB019800990DAAC0
S2140838E0CDF814C0FFF7FAF900287FF4F6AD0E9964
S2140838F054460F9A481CDDF814C08DE50E990F9AA9
S2140839000131154FFFF79ABB062E144B28BF4FF010
S214083910060CE14604952CEAEC76079363E40E99C8
S2140839200D4F01F1010E1AE6E146049584469DF80E
S2140839302F50FFF741BB8646094D6CE6049A9BF864
S214083940013016680432002E0492BFF66CAA4FF0B7
S214083950FF36FFF768BA00BFF05A0800E85A0800B2
S214083960B05A08002DE9F04588464F6EADF26C4D0A
S2140839701997D8F81C70B1F80CE0B1F80EA00797A4
S214083980D8F824701AAC4FF480652EF0020E002684
S21408399069460094049402950595ADF80CE0ADF8D8
S2140839A00EA0099706960546FFF7D4F9041E07DB0E
S2140839B02846694600F02AF9B04218BF4FF0FF348F
S2140839C0BDF80C305B0605D5B8F80C3043F040035C
S2140839D0A8F80C3020460DF26C4DBDE8F08500BF07
S2140839E038B52F4B054618680C4610B1836B002B6C
S2140839F036D0A28993B218070CD52069A8B113F05F
S214083A0001021ED0636900225B42A361A260F0B186
S214083A10002038BDD9063AD5580724D4206942F084
S214083A200803A3819BB20028E9D103F42072B2F5FB
S214083A30007FE4D02846214600F024FDA3892069AB
S214083A40DDE7990758BF6269A2600028E0D1A3891C
S214083A501A06DED543F04003A3814FF0FF3038BD89
S214083A6000F07AF9C5E7216B49B104F140039942A1
S214083A7003D0284600F048FAA28900232363206969
S214083A8022F02402002392B284E80900C7E742F035
S214083A90400209232B604FF0FF30A28138BD00BFDB
S214083AA030050720024B13B1024800F005B87047EE
S214083AB0000000006D3D080001460020024603464F
S214083AC001F006BC8B892DE9F0419AB20D46110724
S214083AD080463CD46A6843F40063002AAB8165DDFF
S214083AE0AE6A002E4BD09BB203F48052002192B2ED
S214083AF0D8F80040C8F80010002A5BD02A6D5F0787
S214083B0005D569682B6B521A0BB1EB6BD21A404677
S214083B10E9690023B047461C56D0AB892A6923F4C6
S214083B2000639BB200212A60DA04AB8169603BD44B
S214083B30296BC8F8004011B305F14003994202D03A
S214083B40404600F0E1F900202863BDE8F0812E69C0
S214083B50AEB191072C680CBF6B6900232E60A41BBE
S214083B60AB600AE0324623466F6A4046E969B847C2
S214083B700028A4EB0004064404DD002CF2DC002038
S214083B80BDE8F081AB894FF0FF3043F04003AB81CE
S214083B90BDE8F081AB892A6923F400639BB2AB8148
S214083BA0DB0469602A60C3D52865C1E7EA6B002A8A
S214083BB096DCE4E701234046E969B047431C024621
S214083BC019D0AB89AE6A9AE7D8F800100029E1D078
S214083BD01D2907D0162905D0AB8943F04003AB81D1
S214083BE0BDE8F081AB89296923F400630022AB8124
S214083BF085E806009CE7D8F80030002BE1D01D2B9E
S214083C0001D0162BBED1C8F80040B8E710B5044658
S214083C1082B008B1836B53B1B1F90C0008B902B091
S214083C2010BD204602B0BDE81040FFF74BBF01911B
S214083C3000F092F80199EFE720B1054B01461868A5
S214083C40FFF7E4BF034B0449186800F0E9BB00BF60
S214083C5030050720AC5A08000D3C0800014900F062
S214083C60DFBB00BF995308002DE9F04F07463548DB
S214083C707D68002407F53B7204230321F863C7F820
S214083C80E412C7F8E822C7F8E04283B02C606C60FC
S214083C90AC606C66EC812C616C61AC61AB812146D2
S214083CA005F15C000822FEF7DDFDDFF89CB0BE6873
S214083CB0DFF898A0DFF89890DFF8988001230922AB
S214083CC0C5F820B0C5F824A0C5F82890C5F82C80FB
S214083CD0ED612146F381B28106F15C0034607460C0
S214083CE0B460746634617461B46108220193FEF7A7
S214083CF0B9FDFD6812200222F661C6F820B0C6F8A3
S214083D0024A0C6F82890C6F82C802146A881EA8107
S214083D102C606C60AC606C662C616C61AC6105F103
S214083D205C000822FEF79EFD019BED61C5F820B0F9
S214083D30C5F824A0C5F82890C5F82C80BB6303B046
S214083D40BDE8F08F5D3C08000D51080031510800B1
S214083D506951080089510800836B03B17047FFF763
S214083D6083BF00BF704700BF704700BF38B5084B19
S214083D70084DED1AAC1018BFED1805D0013C55F8E3
S214083D80043D9847002CF9D1BDE8384001F044BFFF
S214083D90245C0800285C08002DE9F04182B007463C
S214083DA00E46144600F068FB012840D0384601A9A4
S214083DB0324604F15C0301F03FFAB0F1FF3F80465B
S214083DC02ED000283BD09DF80410002509E0236873
S214083DD019702368013323600135A8452FD901AB34
S214083DE0595DA368013B002BA360F0DAA2699342F1
S214083DF006DB236819702368197801330A29EAD183
S214083E003846224601F0C4F9A0F1FF30B0FA80F037
S214083E1040090028E0D04FF0FF3002B0BDE8F0813E
S214083E20A38943F04003A38102B0BDE8F081731E66
S214083E30FE2BBBD8F1B280468DF80410C5E7304695
S214083E4002B0BDE8F08100BF938913F4005F0BD180
S214083E5010B4546E43F4005344F4005454669381EB
S214083E605DF8044BFFF798BFFFF796BFF8B50C460A
S214083E70224F064600F0B2FEBB685D6825F00305D3
S214083E80291B01F6EF7121F47F6121F00F01A1F5DE
S214083E908054B4F5805F07DB3046002101F024F932
S214083EA0BB682B44984204D0304600F099FE0020A8
S214083EB0F8BD3046614201F017F901300DD0104BBD
S214083EC0BA6819682D1B45F001053046091B556070
S214083ED0196000F085FE0120F8BD3046002101F08B
S214083EE003F9BA68831A0F2BDEDD064C04492468EA
S214083EF043F00103001B53600860D5E75C05072004
S214083F00F4AB07206809072000294ED02DE9F041B8
S214083F100C46804600F062FE54F8047C6249A4F120
S214083F20080527F00102AB188E6858689E4220F0F4
S214083F3003005AD0FE0758600BD454F8087C01F1E9
S214083F40080EED1BAC683A44744567D0EF68E76026
S214083F50BC601C186468E4070CD4544F9C68024480
S214083F60BC427CD0D86842F00103E06084606B6095
S214083F70AA5003E042F001036B60AA50B2F5007F36
S214083F8014D2D20801EBC20301244868921004FA3E
S214083F9002F29C681043AC60EB6048609D60E56088
S214083FA04046BDE8F04100F01BBE7047530A042B9C
S214083FB047D8930903F13804600001EB8000836852
S214083FC03949834243D0596821F00301914202D906
S214083FD09B689842F7D1DA68EA60AB60404695601D
S214083FE0DD60BDE8F04100F0FBBDFF07024407D4E2
S214083FF054F8084C2D1BEB68A8682244C3609860E8
S2140840002B4B42F001001B6868609A428D60C7D34C
S214084010284B40461968FFF729FFC1E71918496871
S214084020C90709D4D96802449B6842F00100D960E0
S2140840308B606860AA50B3E742F001036B60AA5031
S214084040AEE7142B14D803F15B046000B5E74A68A2
S214084050A4100120A04002434A601A46BCE742F07A
S21408406001034D610D61EC60AC606B60AA5097E788
S214084070542B04D8130B03F16E0460009DE7B3F5C8
S214084080AA7F04D8D30B03F17704600095E740F2C3
S2140840905450834204D8930C03F17C0460008CE7E8
S2140840A0FC207E2489E700BF5C05072064050720FE
S2140840B064090720F0AB07209368002B00F0B18056
S2140840C02DE9F04FB1F80CE083B01EF0080F0C464F
S2140840D08146164628D00B6933B30EF002081FFA3D
S2140840E088F0356880B34FF0000BD846DFF8E4A2B6
S2140840F0B8F1000F00F08F80D0454346484628BFE9
S2140841005346E1695A46676AB847002840F3A880CC
S214084110B36883441B1AC0EB0808B360002BE7D1CA
S214084120002003B0BDE8F08F48462146FFF758FC4C
S214084130002840F04681B4F80CE035680EF0020816
S2140841401FFA88F00028CED11EF0010B40F09180AF
S214084150D846B8F1000F58D01EF4007FA76862D082
S214084160B845BA46C0F0C2801EF4906F00F0C08012
S21408417067692169236807EB47075B1A07EBD77758
S214084180581C7F10404487423A463CBF07463A468A
S2140841901EF4806F009300F0FB801146484600F03E
S2140841A0E9F9009B8246002800F00E811A4621692C
S2140841B00093FEF7E1FAA289009B22F4906242F08F
S2140841C08002A2810AEB0300C4F810A0FB1A6761FC
S2140841D0C24647462060A3605246594600F09AFCFD
S2140841E0A0682268C01BA060404602EB0A03236052
S2140841F0B36883441B1AC0EB0808B360002B8FD043
S214084200B4F80CE0B8F1000FA6D1D5F800B0D5F890
S214084210048008359DE7D5F800B0D5F80480083541
S21408422066E70020704720682369984203D86269C9
S214084230904580F08580474528BF474659463A4608
S21408424000F068FCA3682268DB1B3A44A36022607F
S214084250002B49D148462146FFF7D8FC002843D012
S214084260A38943F040034FF0FF30A38103B0BDE8B5
S214084270F08F8046834682460090BAF1000F2BD016
S214084280009B002B4FD0D045434628BF5346206896
S21408429021691F468842D4F808E0626903D90EEB04
S2140842A0020C63455EDC934224DB1346676A484685
S2140842B0E1695A46B847071ED2DDB8EB070829D089
S2140842C0B368BB44DB1BC7EB0A0AB360002B3FF49A
S2140842D027AFBAF1000FD3D10023D5F800B0D5F830
S2140842E004A000930835C8E7384681E74746C24623
S2140842F0206871E71A465946019300F00BFCA2683D
S2140843002168019BB8EB0708A2EB03020B44A260E6
S2140843102360D5D148462146FFF778FC00289FD170
S214084320CDF80080CCE758460A21524600F0A8FB94
S214084330002841D001300123CBEB00080093A2E708
S2140843406FF00043434528BF434693FBF2F3676A82
S21408435003FB02F34846E1695A46B84700283FF788
S21408436047AF7DE762465946CDF804C000F0D2FB59
S2140843702368DDF804C04846634423602146FFF7F7
S21408438045FCDDF804C000287FF46AAF674694E76A
S214084390484600F027FC009B824600287FF412AFB0
S2140843A048462169FFF7B0FDA3890C2223F0800355
S2140843B09BB2C9F8002054E701230AF101080093CC
S2140843C061E74FF0FF30ACE60C23C9F80030A3894C
S2140843D047E700BF00FCFF7F2DE9F04110F538776E
S2140843E01AD0884600267D68BC68013D0ED4A3898D
S2140843F0013D012B06D9B4F90E30013302D0204610
S214084400C04706436B1C04F16804F0D13F68002FD0
S214084410E9D13046BDE8F0813E463046BDE8F08139
S2140844202DE9F84310F538761ED0884607464FF033
S21408443000097568B468013D10D4A389013D012BB5
S21408444008D9B4F90E30013304D038462146C0479F
S21408445049EA00096B1C04F16804EED13668002EA0
S214084460E7D14846BDE8F883B1464846BDE8F88334
S2140844700048704738050720014B1868704700BF8A
S214084480580507208B899AB212F0020F3CD1F0B576
S2140844900C46B1F90E1091B00029054619DB01AAA1
S2140844A000F0BCFF002812DB029B03F47043A3F560
S2140844B00057B7FA87F7B3F5004F4FEA57172AD0D1
S2140844C0A3894FF4806643F40063A3810BE0A389B5
S2140844D09AB212F0800F43F40063A3810CBF4FF426
S2140844E08066402600272846314600F043F8A38910
S2140844F040B31A4A43F08003EA63A3812060206130
S21408450066619FB911B0F0BD01F1430301220B604B
S2140845100B614A617047124BA26A9A42D0D1A389AE
S2140845204FF480663343A381E664DCE72846B4F993
S2140845300E1000F087FF0028E4D0A38943F001039B
S214084540A381DFE79A05DDD404F1430243F00203B2
S2140845500121A381226022616161D3E75D3C0800E6
S21408456069510800024B0146186800F003B800BFFE
S214084570300507202DE9F04F01F10B05162D83B005
S214084580064627D935F0070500F1B680A94200F29D
S214084590B38000F023FBB5F5FC7F22D2BC4FE808B9
S2140845A007EBC003DC689C4200F0BC816368E168E6
S2140845B023F0030323445A68A56842F00102E96021
S2140845C030468D605A6000F00BFB0834204603B076
S2140845D0BDE8F08F102900F28F8000F0FFFA102552
S2140845E0DCE7680A00F08F80042800F24781A809F3
S2140845F038304100A64F07EB8101CC68A14206D1AE
S2140846000CE0002A80F28280E468A14206D0636843
S21408461023F003035A1B0F2AF3DD013801309C49A7
S2140846203C6901F1080E744500F07181636823F057
S21408463003035A1B0F2A00F35781002AC1F814E017
S214084640C1F810E066DAB3F5007F80F02D81DB084C
S21408465001EBC3084FEAA30C4A68012303FA0CF3DC
S214084660D8F808C01343C4F808C0C4F80C804B60D8
S214084670C8F80840CCF80C408210012494409C42AC
S21408468055D8234206D120F003006400234200F1E7
S2140846900400FAD007EBC008C4468146DCF80C30A4
S2140846A09C4507D135E1002980F24581DB689C45A9
S2140846B000F02F815A6822F00302511B0F29F2DD01
S2140846C01C46DA6854F808CF45F0010941F001089D
S2140846D01D44C3F804903046CCF80C20C2F808C035
S2140846E07D613D61C5F80CE0C5F808E0C5F80480B2
S2140846F0695000F075FA69E7002420460C233360F9
S21408470003B0BDE8F08F7E213F2073E723445A6844
S214084710E16851E723445A68304642F001025A607D
S214084720083400F05DFA204603B0BDE8F08FBC6898
S214084730636823F00308454504D8C5EB08030F2B28
S21408474000F38C80534BDFF85CA11A68DAF8003067
S2140847502A44013304EB080B00F0518102F580521D
S2140847600F3222F47F6222F00F0211463046019281
S21408477000F0BAFCB0F1FF3F8146019A00F048818C
S214084780834500F2EF80444BCB4519681144196005
S21408479000F04381DAF80000DFF808E101301BBFBB
S2140847A0CBEB090B5944CEF80090196019F00701B5
S2140847B000F00881C1F10800C1F580518144083134
S2140847C04A44C2F30B02C2EB010A51463046019333
S2140847D000F08AFC431C019B00F02D81C9EB000207
S2140847E0524442F001021968BC425144C7F8089086
S2140847F01960C9F80420DFF8A0A016D0B8F10F0F8A
S21408480040F2EF806268A8F10C0323F0070302F079
S2140848100102E0184FF0050E1A430F2B6260C0F82D
S21408482004E0C0F808E000F20A811C4BBC681A686D
S214084830914288BF19601A4B1A689142626888BF0D
S214084840196022F003029542A2EB050301D80F2B4C
S21408485004DC304600F0C4F90024B7E645F001024F
S21408486043F00103254462603046BD6008346B603F
S21408487000F0B6F9204603B0BDE8F08F142869D9D1
S214084880542800F29880280B6E304100B2E600BF2C
S2140848905C050720F0AB0720F4AB0720ECAB07203D
S2140848A0E8AB0720680907205A0A042A55D9142AAB
S2140848B000F2A7805B324FEA420C07EB8C0CDCF860
S2140848C00810DFF8B88161457FD04A6822F00302F5
S2140848D0934202D289688C45F7D1CA687B68E26041
S2140848E0A1609460CC60C7E645F0010742F001037A
S2140848F02544676030464D610D61C5F80CE0C5F883
S21408490008E06B60AA50083400F06AF95EE64B6867
S214084910B2E609F1010919F0030F0CF1080C7FF44F
S214084920BDAE2CE004F108036469A34208BF023058
S2140849303FF475AE3AE61C461A445168DB6854F8EC
S214084940085F41F0010151603046EB609D6000F061
S21408495047F93BE65B3041004CE69A0938324FEAA5
S214084960420CAAE7BC42454B3FF40DAF9C68626810
S21408497022F0030267E7D8F8008098457CD110F04B
S214084980030FA8F1080300F1FF30F4D17B6823EA8F
S21408499004037B6064009C423FF6C9AE002C3FF4DB
S2140849A0C6AE234248467FF475AE6400234200F143
S2140849B00400FAD06EE6B0F5AA7F18D8E80B773070
S2140849C0410017E64FF48051FAE6D8F80430921002
S2140849D04FF0010C0CFA02F21343C8F804300A46EA
S2140849E07DE70123C9F804304C4600222BE740F245
S2140849F0545398421CD8A80C7C304100FAE5103273
S214084A00B3E6542A23D81A0B6E324FEA420C54E700
S214084A10BC68626822F0030215E7CBF30B00002897
S214084A207FF4B8AE4244BB6842F001025A60FCE626
S214084A30FC217E20DEE501224FF0000AD3E604F1D1
S214084A4008013046FFF760FADAF80010EDE6B2F52E
S214084A50AA7F04D8DA0B77324FEA420C2DE740F2E9
S214084A6054518A4204D89A0C7C324FEA420C24E706
S214084A704FF0FC0C7E2220E77B688BE75C0507205E
S214084A80830770B4C9B240D0541E002A3FD00378BA
S214084A908B4218BF431C05D11CE0ECB10278013CE0
S214084AA08A4217D013F0030F184603F10103F4D116
S214084AB0032C14D884B103788B420BD00519431CF9
S214084AC002E002788A4205D0AB42184603F1010399
S214084AD0F7D1002070BC7047204670BC704702466D
S214084AE041EA012646EA0646136810467340A3F1D3
S214084AF0013525EA030313F0803F02F10402D9D1F9
S214084B00043C032C1046EFD8D4E71446D0E71046EA
S214084B10E0E700BF8842F0B50DD98B1898420AD254
S214084B208118002A54D09A1A13F8014D934201F8B6
S214084B30014DF9D1F0BD0F2A48D940EA01039B0779
S214084B4047D1154600F1100401F1100353F8106C14
S214084B50103D44F8106C53F80C6C0F2D44F80C6C90
S214084B6053F8086C04F1100444F8186C53F8046CF5
S214084B7003F1100344F8146CE8D8A2F1100323F0EC
S214084B800F0302F00F0E1033BEF1030F194403444F
S214084B9021D90E4674461D1F56F8047B043C032C88
S214084BA045F8047FF8D8AEF1040424F0030404346E
S214084BB02344214402F0030252B1013B0A4411F88F
S214084BC0014B914203F8014FF9D1F0BD0346F3E7D4
S214084BD0F0BD0346F1E77246EEE700BF704700BF38
S214084BE0704700BF2DE9F04F174683B00D460029E1
S214084BF000F0E280814607F10B04FFF7EFFF55F857
S214084C00043C162C23F00306A5F108084BD81022FE
S214084C101446A7424CD8964251DADFF8A4B308EBFC
S214084C200601DBF80800884200F0D380486820F0C8
S214084C30010E8E44DEF804E01EF0010F54D120F079
S214084C4003003044904280F2BD80DB0700F190807C
S214084C5055F8083CC3EB080ADAF8043023F00303D7
S214084C6000EB030E964549DB5746CB688968321F2A
S214084C70CB60996057F8081FDAF80C30242ACB6006
S214084C80996000F23381132A40F2FA802B681B2AB7
S214084C90CAF808306B68CAF80C3000F23B81083551
S214084CA00AF11003EDE024F00704002C2246B0DADF
S214084CB00C230020C9F8003003B0BDE8F08F2F465B
S214084CC0321B0F2A03F0010340D83343C8F80430D8
S214084CD04644736843F0010373604846FFF780FF55
S214084CE0384603B0BDE8F08FD90741D455F8083CDC
S214084CF0C3EB080ADAF8043023F00303334493427C
S214084D0036DB5746DAF80C1057F8080F321F242AF5
S214084D10C160886000F2F580132A40F2F0802968A6
S214084D201B2ACAF808106968CAF80C1000F207812E
S214084D3008350AF1100229681E4611606968D046CF
S214084D405160AB689360DAF80430B9E708EB040101
S214084D50234342F00100C8F804300A444860536808
S214084D60083143F0010353604846FFF7CDF8B4E72F
S214084D7039464846FFF7FEFB07460028ADD055F8EB
S214084D80043CA0F1080123F001024244914200F0DD
S214084D90A680321F242A00F29380132A65D8034679
S214084DA02A46116819605168596092689A602946BF
S214084DB04846FFF7A9F890E7114603B0BDE8F04F5C
S214084DC0FFF7D8BBCA6889682F46CA60064691604E
S214084DD076E7416804F1100021F00301314481426E
S214084DE05ADADB07C4D455F8083CC3EB080ADAF8E5
S214084DF0043023F0030301EB030C60453FF77EAF56
S214084E005746DAF80C3057F8081F321F242ACB60AA
S214084E10996000F2B680132A40F2A7802B681B2AF6
S214084E20CAF808306B68CAF80C3000F2B380083548
S214084E300AF110032A681A606A685A60AA689A60B3
S214084E40C4EB0C030AEB040243F00103CBF808207A
S214084E505360DAF80430484603F001031C43CAF8E6
S214084E600440FFF7BDFE38463BE72B681B2A036065
S214084E706B68436028D800F1080305F1080290E73C
S214084E803B462A6876461A606A68D0465A60AA6818
S214084E909A60DAF8043013E70B1B08EB040243F0B9
S214084EA00103CBF80820536055F8043C484603F045
S214084EB001031C4345F8044CFFF792FE284610E70A
S214084EC02946FFF727FE72E7AB68242A8360EB685B
S214084ED0C3602BD000F1100305F1100261E750F80B
S214084EE0042C2F4622F003021644E9E629463846E3
S214084EF07646D046FFF70EFEDAF80430E0E63A4685
S214084F0019E7294638461E46D046FFF703FEDAF864
S214084F100430D5E6AB68242ACAF81030EB68CAF81D
S214084F20143018D010350AF11803AAE72A6900F1D8
S214084F3018030261696905F11802416131E7A96839
S214084F40242ACAF81010E968CAF814100FD01035C9
S214084F500AF11802EFE62A690AF12003CAF81820AF
S214084F606A691835CAF81C208BE73B4662E7296948
S214084F700AF12002CAF8181069691835CAF81C1010
S214084F80D9E629463846CDF804C0FFF7C3FDDDF854
S214084F9004C055E7AB68242ACAF81030EB68CAF88C
S214084FA0143003D010350AF1180343E72A690AF1CA
S214084FB02003CAF818206A691835CAF81C2039E789
S214084FC05C050720838903F00903092B01D000201C
S214084FD07047FEF731BE00BFF8B50C46054610B15F
S214084FE0836B002B45D0A3899AB2970407D4626EC8
S214084FF043F4005322F400526266A3819AB2002159
S2140850009606616032D4500721D5216B61B104F150
S2140850104003994202D02846FEF776FFE36B00204D
S21408502063602063002B3ED12369002B4BD0A789F1
S214085030BEB2B30720D1226928462260256AE169F4
S2140850406369A8470028606009DD0020F8BDD1061E
S2140850503ED512072AD443F00403A381E4E7A389C4
S2140850601BD0002243F04003A38162604FF0FF305C
S214085070F8BDFEF771FEB6E7194A01231068A3814A
S214085080184906F00906FFF7A7F9092EA781D2D115
S21408509028462146FEF716FDCDE743F020034FF0DD
S2140850A0FF30A381F8BDA36B2360F8BD28462146D0
S2140850B0FEF7ACFD0028D9D1A389A06023F0080329
S2140850C0A0619BB2C7E728462146FFF7DBF9AEE7A3
S2140850D043F0400309222A604FF0FF30A381F8BD51
S2140850E0AC5A0800C54F080038B5074C00230546DB
S2140850F008462360FDF732F8431C00D038BD236805
S214085100002BFBD02B6038BD30AC072010B50C4602
S214085110B1F90E1000F0BCF9002803DB236D034438
S214085120236510BDA38923F48053A38110BD00BF57
S2140851302DE9F0410C4689891D46CB0516460746DB
S21408514006D5B4F90E100022022300F08DF9A189C5
S21408515021F48051A1813846B4F90E1032462B4608
S214085160BDE8F04100F0A0B810B50C46B1F90E1035
S21408517000F07AF9A389421C0EBF23F4805343F447
S21408518080532065A38110BDB1F90E1000F0F2B867
S21408519070B50D461446064610B1836B002B48D0F2
S2140851A0A289A36991B20807A36038D52369002BA2
S2140851B035D08904EDB215D522686169D31A8B42B9
S2140851C01CDA0133A168501C0139A16020601570F3
S2140851D062699A421AD0A389DB0701D50A2D15D031
S2140851E0284670BD616E42F4005221F40051A28137
S2140851F0226861666169D31A8B42E2DB3046214633
S214085200FEF704FD40B922680123DBE73046214655
S214085210FEF7FCFC0028E3D04FF0FF3070BD3046A8
S2140852202146FEF7DDFB0028F6D1A289236991B254
S214085230BFE7FEF791FDB3E72DE9F041054686B0D6
S2140852401E460C46A1B1104B1746D3F80080FFF750
S2140852500FF90096034621463A462846C047431C9F
S21408526003D100228A2332602B6006B0BDE8F081A5
S214085270054B1F68FFF7FCF80096034622462846AB
S21408528003A9B847EBE700BF6C09072021B1FF2A3E
S21408529004D80A7001207047084670478A230360BE
S2140852A04FF0FF30704700BF70B5084C0646002523
S2140852B0084611461A462560FCF78CFB431C00D0AE
S2140852C070BD2368002BFBD0336070BD30AC072060
S2140852D02DE9F047254C064625688846D5F8484106
S2140852E092469946C4B360681F2817DC411C76B1FD
S2140852F004EB8003C3F888A0D4F8885101228240C2
S2140853001543022EC4F88851C3F808911ED0831C92
S2140853106160002044F82380BDE8F087144B03B38F
S2140853204FF4C870FFF71EF90446D0B1D5F84831D7
S214085330002784E888003846C5F848410121C4F8A3
S2140853408871C4F88C71002EE1D0D1E7D4F88C317E
S2140853501A43C4F88C21DAE705F5A674C5F848415F
S214085360C1E74FF0FF30BDE8F08700BFAC5A080031
S2140853706545080038B5074C0023054608462360EF
S214085380FCF702FF431C00D038BD2368002BFBD077
S2140853902B6038BD30AC072000293DD070B50546D7
S2140853A00C4608B1836B7BB3B4F90C300BB90020FC
S2140853B070BD28462146FEF785FBE36A064633B1EC
S2140853C02846E16998470028B8BF4FF0FF36A389FA
S2140853D01B061CD4216B41B104F14003994202D04C
S2140853E02846FEF791FD00232363616C21B1284609
S2140853F0FEF78AFD00236364FEF7B4FC0023A3814E
S214085400FEF7B2FC304670BDFEF7A6FCCCE7284691
S2140854102169FEF779FDDDE70020704738B5084CAE
S21408542000230546084611462360FCF7B0FE431CD9
S21408543000D038BD2368002BFBD02B6038BD00BFDA
S21408544030AC072038B5074C0023054608462360CD
S214085450FCF7A2FE431C00D038BD2368002BFBD007
S2140854602B6038BD30AC072070B5084C06460025C2
S214085470084611461A462560FCF790FE431C00D0E5
S21408548070BD2368002BFBD0336070BD30AC07209E
S21408549070B5084C06460025084611461A4625608B
S2140854A0FAF756FE431C00D070BD2368002BFBD0CD
S2140854B0336070BD30AC072053B94AB9002908BF1D
S2140854C000281CBF4FF0FF314FF0FF3000F03CB80B
S2140854D082B0EC462DE9005000F01EF8DDF804E036
S2140854E002B00CBC704700BF2DE9F041069C904600
S2140854F006460F461D4600F029F808FB01FCA8FBE7
S214085500002300FB05C5B21A2B4467EB0303864647
S214085510C4E90023BDE8F0812DE9F843089E174644
S214085520804689461D4600F067F900FB05F3A0FB98
S214085530074507FB0137B8EB04043D4469EB05054E
S214085540C6E90045BDE8F883704700BF00292DE985
S214085550F043C0F2A8800026002BC0F29E80814649
S2140855608E4690469C46174604460D46002B3DD16F
S2140855708A4259D9B2FA82F33BB1C3F120029D4060
S21408558020FA02F29F4015439C40390CB5FBF1F017
S2140855901FFA87FE01FB10550EFB00F3220C42EAA9
S2140855A00545AB4209D9ED1900F1FF3280F00B81B1
S2140855B0AB4240F2088102383D44ED1AB5FBF1F3E0
S2140855C001FB13550EFB03FEA4B244EA0545AE459F
S2140855D008D9ED1903F1FF3280F0F780AE4540F2A6
S2140855E0F480023B43EA0043002203E08B420FD9D3
S2140855F000221346341C18BF012460424FF00005F1
S21408560065EB45015840514000196941BDE8F083F3
S214085610B3FA83F2002A40F089808B4202D3804591
S21408562000F2E2800123E5E712B90123B3FBF2F7A3
S214085630B7FA87F8B8F1000F3BD1ED1B4FEA174CC5
S2140856401FFA87FE0122B5FBFCF00CFB10550EFB7B
S21408565000F3210C41EA0545AB4207D9ED1900F1E4
S214085660FF3102D2AB4200F2C3800846ED1AB5FB02
S214085670FCF30CFB13550EFB03FEA4B244EA0545E7
S214085680AE4507D9ED1903F1FF3102D2AE4500F257
S214085690AD800B4643EA0043ACE752426FEA060683
S2140856A063EB43035BE7404261EB41014FF0FF3693
S2140856B052E707FA08F7C8F1200225FA02F34FEA7C
S2140856C0174CB3FBFCF11FFA87FE0CFB113324FAC8
S2140856D002F205FA08F50EFB01F92A43100C40EA17
S2140856E00343994504FA08F407D9DB1901F1FF309A
S2140856F078D2994576D902393B44C9EB0303B3FB04
S214085700FCF00CFB10330EFB00F592B242EA0343A2
S2140857109D4207D9DB1900F1FF325FD29D425DD961
S21408572002383B445D1B40EA01428CE7C2F1200385
S21408573028FA03F10CFA02FC41EA0C0C4FEA1C406A
S2140857402EFA03F1B1FBF0F51FFA8CF700FB1511E2
S21408575029FA03F30EFA02FE07FB05F943EA0E0ED2
S2140857604FEA1E4343EA0141894508FA02F808D978
S21408577011EB0C0105F1FF3332D2894530D9023DD1
S2140857806144C9EB0101B1FBF0F300FB131107FB01
S21408579003F71FFA8EFE4EEA014E774508D91EEB30
S2140857A00C0E03F1FF3117D2774515D9023BE644B4
S2140857B043EA0543A3FB0889C7EB0E0ECE4509D37B
S2140857C005D0002216E71046F7E613460AE7944087
S2140857D04445F6D2013BF4E70B46E9E71046A1E755
S2140857E01D46CEE7014688E7134603E7023B51E726
S2140857F002383D443AE700BF2DE9F043002B44D178
S2140858008A42154604464FD9B2FA82F70E464FB179
S214085810C7F12003B94020FA03F602FA07F50E434B
S21408582000FA07F42F0CB6FBF7F01FFA85FE07FB05
S21408583010620EFB00F1260C46EA0243994209D98B
S2140858405B1900F1FF3280F0EE80994240F2EB805F
S21408585002382B44591AB1FBF7F307FB13110EFB5A
S21408586003FEA4B244EA01418E4508D9491903F15A
S214085870FF3280F0DA808E4540F2D780023B43EA5A
S214085880004000263146BDE8F0838B4247D8B3FA7D
S21408589083F6002E48D18B4202D3824200F2CF8094
S2140858A001203146BDE8F08312B90125B5FBF2F5B3
S2140858B0B5FA85FCBCF1000F78D1491B2F0C1FFAEE
S2140858C085FE0126B1FBF7F007FB10110EFB00F270
